:020000040800F2
:1000000038C80020A90100080D3B00084B2F00084C
:10001000093B000839080008F5420008000000000C
:10002000000000000000000000000000CD3C0008BF
:10003000D90D0008000000000F3B0008CF3C00086D
:10004000C3010008C3010008C3010008C301000880
:10005000C3010008C3010008C3010008C301000870
:10006000C3010008C3010008C3010008C301000860
:10007000C3010008C3010008C3010008C301000850
:10008000C3010008C3010008C3010008C301000840
:10009000C3010008C3010008C3010008C301000830
:1000A000C3010008C3010008C3010008C301000820
:1000B000C3010008C3010008C3010008C301000810
:1000C000C3010008C3010008C3010008C301000800
:1000D000C3010008C3010008E5420008C30100088D
:1000E000C3010008C3010008C3010008C3010008E0
:1000F000C3010008C3010008C3010008C3010008D0
:10010000C30100080000000000000000C301000857
:10011000C3010008C3010008C3010008C3010008AF
:10012000C3010008C3010008C3010008C30100089F
:10013000C3010008C3010008000000000000000027
:10014000C3010008C3010008C3010008000000004B
:10015000000000000000000000000000000000009F
:10016000C3010008C3010008C3010008C30100085F
:10017000C3010008C3010008C3010008C30100084F
:10018000C3010008C30100080000000000000000D7
:10019000C3010008DFF80CD000F02AFB004800473C
:1001A000354C000838C800200648804706480047FC
:1001B000FEE7FEE7FEE7FEE7FEE7FEE7FEE7FEE717
:1001C000FEE7FEE75D3D0008950100082DE9F05FC0
:1001D0000546002092469B468846064681464024B6
:1001E0001BE0284641464746224600F020F8534689
:1001F0005A46C01A914110D311461846224600F0C3
:100200000BF92D1A67EB01084F4622460120002109
:1002100000F002F917EB00094E41201EA4F1010481
:10022000DFDC484631462A464346BDE8F09F202A97
:1002300004DB203A21FA02F00021704721FA02F390
:10024000D040C2F12002914008431946704740EA6D
:1002500001039B0703D009E008C9121F08C0042A44
:10026000FAD203E011F8013B00F8013B521EF9D22B
:100270007047D2B201E000F8012B491EFBD2704753
:100280000022F6E710B513460A4604461946FFF762
:10029000F0FF204610BD2DE9F04D81EA030404F083
:1002A000004B21F0004514464FF0000A23F00041B6
:1002B00050EA050220D054EA01021DD0C5F30A57C6
:1002C0000246C5F31303C1F31300C1F30A5640F409
:1002D000801543F48013A7EB0608101BD64608F2DE
:1002E000FD3873EB050002D308F1010801E0921814
:1002F0005B41B8F1000F03DA00200146BDE8F08D44
:1003000000204FF48011064684460EE0171B73EB65
:10031000050705D3121B63EB050306434CEA010CEA
:1003200049084FEA300092185B4150EA0107EDD1CD
:1003300052EA030012D082EA040083EA050108436E
:1003400005D0101BAB4106D20122002306E000229B
:100350004FF0004302E06FF0010253101AEB060069
:100360004CEB085110EB0A0041EB0B01BDE8F04DDE
:1003700000F098B80EB540F2334102910021CDE96A
:1003800000110A460B4600F09CF803B000BD00F0D7
:10039000004230F000400AD0C10D01F56071C0F399
:1003A000160042EA0151C20840071143704700207D
:1003B0000146704701F0004330B421F0004150EA9B
:1003C000010206D00A0DA2F56072C1F31301002AE2
:1003D00002DC30BC00207047440F44EAC104C10075
:1003E000E01830BC00EBC25000F025B830B50B4629
:1003F000014600202022012409E021FA02F59D4255
:1004000005D303FA02F5491B04FA02F52844151E28
:10041000A2F10102F1DC30BD202A04DB203A00FA0F
:1004200002F1002070479140C2F1200320FA03F34B
:100430001943904070470029A8BF7047401C4900ED
:1004400008BF20F00100704710B4B0FA80FC00FA39
:100450000CF050EA010404BF10BC704749B1CCF164
:10046000200421FA04F411FA0CF118BF01212143F0
:100470000843A3EB0C01CB1D4FEA00614FEA1020AB
:1004800042BF002010BC704700EBC350104400294D
:10049000A4BF10BC7047401C490008BF20F00100F9
:1004A00010BC704710B5141E73F1000408DA401C2C
:1004B00041F1000192185B411A4301D120F0010083
:1004C00010BD2DE9F04D92469B4611B1B1FA81F273
:1004D00002E0B0FA80F220329046FFF79DFF04461A
:1004E0000F4640EA0A0041EA0B0153465A460843C8
:1004F00013D0114653EA010019D0C8F1400250460A
:10050000FFF795FE05460E46504659464246FFF710
:1005100083FF084305D0012004E020463946BDE8AA
:10052000F08D0020054346EAE0762C4337430A98D5
:100530006305E40AA0EB08000022FD0A44EA4754E0
:100540000A3002D500200146E9E70105101969418A
:10055000DDE9084500196941BDE8F04DA2E72DE944
:10056000FE4F804681EA0300C00F0C46009021F048
:10057000004123F00045B8EB0200A94105D24046F6
:10058000214690461C460B46024623F0004010438D
:1005900047D0270DC7F30A00C3F30A510290401A4F
:1005A000019040286BDAC3F3130040F4801B0098DD
:1005B000924620B10023D2EB030A63EB0B0B0198A8
:1005C0005946C0F140025046FFF726FF06460D4649
:1005D00050465946019A00F01DF910EB08006141A0
:1005E000002487EA115284EAE7731A4340D0009A44
:1005F00062B3019A012A4FEA075215DC001B61EB36
:1006000002014FF0004202EA0752CDE90042001C0D
:1006100041F5801132462B46FFF753FF03B0BDE88A
:10062000F08F40462146F9E7001B61EB0201001CF8
:1006300041F5801300185B412018A2F5001747EB25
:10064000030140EAD570B6196D4111E06D084FEA1B
:10065000360645EAC0754FEA0752001B61EB0201FE
:10066000001C41F5801149084FEA30000019514142
:1006700032462B4603B0BDE8F04FFFF713BF00989A
:10068000012240000023D0EB020263EBE0730098EC
:1006900021464FEAE074B8EB000061EB0401E9E7A2
:1006A00083F000435BE781F0004158E72DE9FE4FFE
:1006B00081EA030404F0004421F0004100944FF06B
:1006C000000B23F0004350EA01045ED052EA030419
:1006D0005BD0C3F30A54C1F30A552C44A4F2F3349B
:1006E0000194A0FB0254C1F3130141F48011C3F340
:1006F000130343F4801301FB024400FB034E840AFE
:10070000970A44EA815447EA8357A4FB0768029595
:100710008D0A05FB07854FEA932C04FB0C54270533
:10072000029D4FEA065847EA1637B5EB08056EEB0F
:10073000070C870E920E47EA811742EA8312A7FB45
:100740000201B6EB0B0164EB00042B0D43EA0C3302
:100750005E1844EB1C50DA465146E7FB0201C5F334
:1007600013044FEA0B3343EA14534FEA0432019C5B
:1007700043EA0603A4F10C040294009CCDE900B402
:10078000FFF79FFE03B0BDE8F08F00200146F9E7B8
:10079000C1F30A52C1F3130140F2FF3341F4801157
:1007A0009A4202DA00200146704740F233439A42EF
:1007B000A2F2334202DC5242FFF739BDFFF72CBEF2
:1007C00030B5041E71F1000404DB4FF000444042D8
:1007D00064EB0101141E73F1000405DB1C464FF0AD
:1007E0000043524263EB0403994208BF904230BD7C
:1007F000064C074D06E0E06840F0010394E807006E
:1008000098471034AC42F6D3FFF7C8FC4C520008AE
:100810006C520008202A06DBCB17203A41FA02F07E
:1008200043EAE07306E041FA02F3D040C2F120024D
:10083000914008431946704700BFFEE7FE4890ED1F
:10084000000AB5EEC00AF1EE10FA1DD890ED030AC9
:10085000B5EEC00AF1EE10FA16D8F84890ED000A8D
:10086000B5EEC00AF1EE10FA0ED8F34890ED000A8A
:10087000F248D0ED000AB4EEE00AF1EE10FA03D827
:100880009FEDEF0A80ED000AEB4890ED000AB5EE0F
:10089000C00AF1EE10FA1DDB90ED030AB5EEC00AB6
:1008A000F1EE10FA16DBE54890ED000AB5EEC00A4D
:1008B000F1EE10FA0EDBE04890ED030ADF48D0EDD0
:1008C000000AB4EEE00AF1EE10FA03DB9FEDDC0A59
:1008D00080ED000AD84890ED000AB5EEC00AF1EEAE
:1008E00010FA1FD890ED030AB5EEC00AF1EE10FA27
:1008F00018DB90ED030AD148D0ED000AB4EEE00A0F
:10090000F1EE10FA0EDBCC4890ED000ACB48D0EDAA
:10091000000AB4EEE00AF1EE10FA03D89FEDC80A1F
:1009200080ED000AC44890ED010AB5EEC00AF1EE70
:1009300010FA1DD890ED040AB5EEC00AF1EE10FAD7
:1009400016D8C04890ED000AB5EEC00AF1EE10FAD4
:100950000ED8B94890ED010ABA48D0ED000AB4EEBD
:10096000E00AF1EE10FA03D89FEDB50A80ED000A17
:10097000B14890ED010AB5EEC00AF1EE10FA1DDBA8
:1009800090ED040AB5EEC00AF1EE10FA16DBAD48A0
:1009900090ED000AB5EEC00AF1EE10FA0EDBA648A3
:1009A00090ED040AA748D0ED000AB4EEE00AF1EE9B
:1009B00010FA03DB9FEDA20A80ED000A9E4890ED3D
:1009C000010AB5EEC00AF1EE10FA1FD890ED040A44
:1009D000B5EEC00AF1EE10FA18DB90ED040A994862
:1009E000D0ED000AB4EEE00AF1EE10FA0EDB924808
:1009F00090ED010A9348D0ED000AB4EEE00AF1EE62
:100A000010FA03D89FED8E0A80ED000A8A4890ED17
:100A1000020AB5EEC00AF1EE10FA1DD890ED050AF3
:100A2000B5EEC00AF1EE10FA16D8874890ED000A2C
:100A3000B5EEC00AF1EE10FA0ED87F4890ED020A2A
:100A40008148D0ED000AB4EEE00AF1EE10FA03D8C6
:100A50009FED7B0A80ED000A774890ED020AB5EE23
:100A6000C00AF1EE10FA1DDB90ED050AB5EEC00AE2
:100A7000F1EE10FA16DB744890ED000AB5EEC00AEC
:100A8000F1EE10FA0EDB6C4890ED050A6E48D0EDE1
:100A9000000AB4EEE00AF1EE10FA03DB9FED680AFB
:100AA00080ED000A644890ED020AB5EEC00AF1EE4E
:100AB00010FA1FD890ED050AB5EEC00AF1EE10FA53
:100AC00018DB90ED050A6048D0ED000AB4EEE00AAC
:100AD000F1EE10FA0EDB584890ED020A5A48D0EDBC
:100AE000000AB4EEE00AF1EE10FA03D89FED540AC2
:100AF00080ED000A504890ED060AB5EEC00AF1EE0E
:100B000010FA1DD890ED090AB5EEC00AF1EE10FA00
:100B100016D84E4890ED000AB5EEC00AF1EE10FA74
:100B20000ED8454890ED060A4848D0ED000AB4EECC
:100B3000E00AF1EE10FA03D89FED410A80ED000AB9
:100B40003D4890ED060AB5EEC00AF1EE10FA1DDB45
:100B500090ED090AB5EEC00AF1EE10FA16DB3B483B
:100B600090ED000AB5EEC00AF1EE10FA0EDB324845
:100B700090ED090A3548D0ED000AB4EEE00AF1EE36
:100B800010FA03DB9FED2E0A80ED000A2A4890ED53
:100B9000060AB5EEC00AF1EE10FA1FD890ED090A68
:100BA000B5EEC00AF1EE10FA18DB90ED090A2748FD
:100BB000D0ED000AB4EEE00AF1EE10FA0EDB1E48AA
:100BC00090ED060A2148D0ED000AB4EEE00AF1EEFD
:100BD00010FA03D89FED1A0A80ED000A164890ED2E
:100BE000070AB5EEC00AF1EE10FA1DD890ED0A0A18
:100BF000B5EEC00AF1EE10FA16D8154890ED000ACD
:100C0000B5EEC00AF1EE10FA0ED80B4890ED070AC7
:100C10000F48D0ED000AB4EEE00AF1EE10FA03D866
:100C20009FED070A80ED000A034890ED070AB5EE34
:100C3000C00AF1EE10FA0DE07002002094000020CE
:100C400000000000980000209C0000208800002088
:100C50008C0000201DDB90ED0A0AB5EEC00AF1EE13
:100C600010FA16DB594890ED000AB5EEC00AF1EE15
:100C700010FA0EDB564890ED0A0A5448D0ED000AEF
:100C8000B4EEE00AF1EE10FA03DB1FED130A80ED7B
:100C9000000A4F4890ED070AB5EEC00AF1EE10FACF
:100CA0001FD890ED0A0AB5EEC00AF1EE10FA18DB73
:100CB00090ED0A0A4548D0ED000AB4EEE00AF1EEE4
:100CC00010FA0EDB424890ED070A4048D0ED000ACA
:100CD000B4EEE00AF1EE10FA03D81FED270A80ED1A
:100CE000000A3B4890ED080AB5EEC00AF1EE10FA92
:100CF0001DD890ED0B0AB5EEC00AF1EE10FA16D829
:100D0000344890ED000AB5EEC00AF1EE10FA0ED8A4
:100D10002F4890ED080A2F48D0ED000AB4EEE00A03
:100D2000F1EE10FA03D81FED3A0A80ED000A2848C8
:100D300090ED080AB5EEC00AF1EE10FA1DDB90ED59
:100D40000B0AB5EEC00AF1EE10FA16DB214890ED61
:100D5000000AB5EEC00AF1EE10FA0EDB1C4890ED69
:100D60000B0A1C48D0ED000AB4EEE00AF1EE10FACE
:100D700003DB1FED4D0A80ED000A154890ED080ACF
:100D8000B5EEC00AF1EE10FA1FD890ED0B0AB5EEE1
:100D9000C00AF1EE10FA18DB90ED0B0A0D48D0ED09
:100DA000000AB4EEE00AF1EE10FA0EDB084890ED0E
:100DB000080A0848D0ED000AB4EEE00AF1EE10FA95
:100DC00003D81FED610A80ED000A70478C000020F7
:100DD00070020020900000207047704770B50446F4
:100DE000002594F82100022803D00420A0630125E7
:100DF0001EE02068006820F00E002168086020686E
:100E0000006820F001002168086094F8401001207B
:100E10008840E16B4860012084F8210000BF002079
:100E200084F8200000BF606B10B12046616B8847DA
:100E3000284670BD70B5044600F010F906462546F8
:100E4000681C10B104480078054400BF00F006F9A2
:100E5000801BA842FAD370BDA800002078B50346D5
:100E60000022D5E0012696400D6805EA0604002C14
:100E700072D04D68022D02D04D68122D13D1D608C4
:100E800003F1200555F826005507EE0E0F25B54055
:100E9000A8435607F60E0D69B5402843D60803F15E
:100EA000200545F82600186856000325B540A843DC
:100EB0000D7905F003055600B540284318604D68CC
:100EC000012D08D04D68022D05D04D68112D02D09E
:100ED0004D68122D13D1986856000325B540A843DC
:100EE0005600CD68B5402843986058680125954064
:100EF000A8430D79C5F30015954028435860D8687C
:100F000056000325B540A84356008D68B5402843D8
:100F1000D8604D6805F08055B5F1805F77D100BF8E
:100F20003E4DAD6945F001053C4EB5613546AD69B4
:100F300005F00105009500BF00BF4FEAB6359608E1
:100F400055F8260095072E0F0F25B540A843B3F19D
:100F5000904F02D100251FE059E0314DAB4201D145
:100F6000012519E02F4DAB4201D1022514E02E4D91
:100F7000AB4201D103250FE02C4DAB4201D104253A
:100F80000AE02B4DAB4201D1052505E0294DAB42CE
:100F900001D1062500E007259607360FB540284306
:100FA000254D960845F82600244D2868A0434D6835
:100FB00005F48035B5F5803F00D120431F4D2860F2
:100FC0002D1D2868A0434D6805F40035B5F5003F98
:100FD00000D12043194D2D1D28602D1D2868A043E8
:100FE0004D6805F48015B5F5801F00D12043134DE1
:100FF000083528602D1D2868A0434D6805F40015AC
:10100000B5F5001F00D120430C4D0C352860521C53
:101010000D68D540002D7FF425AF78BD001002404B
:101020000004004800080048000C00480010004878
:101030000014004800180048080001400004014066
:1010400042690A4012B10A04826100E0816170477E
:101050000AB1816100E081627047000001480068C8
:1010600070470000A0000020024692F841002028AE
:101070002DD100BF92F84000012801D10220704715
:10108000012082F8400000BF242082F8410010684F
:10109000006820F00100136818601068006820F4F0
:1010A000805013681860106800680843136818605F
:1010B0001068006840F0010013681860202082F872
:1010C000410000BF002082F8400000BFD7E70220A7
:1010D000D5E710B502460B4692F8410020282AD1E8
:1010E00000BF92F84000012801D1022010BD01206C
:1010F00082F8400000BF242082F841001068006898
:1011000020F00100146820601068016821F470610B
:1011100041EA0321106801601068006840F0010096
:1011200014682060202082F8410000BF002082F86F
:10113000400000BFDAE70220D8E7000010B50446FF
:101140000CB9012010BD94F8410028B9002084F8A2
:101150004000204600F044FB242084F84100206831
:10116000006820F0010021680860606820F070606D
:10117000216808612068806820F400402168886048
:10118000E068012805D1A06840F40040216888602B
:1011900004E0A06840F4044021688860E068022808
:1011A00002D18002216848602068406813490843E2
:1011B000216848602068C06820F400402168C86049
:1011C000D4E904010843A16940EA01202168C8600C
:1011D000D4E907010843216808602068006840F0EE
:1011E00001002168086000206064202084F841002C
:1011F0000020206384F8420000BFA3E700800002C3
:101200002DE9FC4704460F4690461E4600200190FB
:1012100094F84100202872D120688069C0F3C03062
:1012200010B10220BDE8FC8700BF94F840000128FF
:1012300001D10220F6E7012084F8400000BF2420FD
:1012400084F841000020606400BFE068012806D1F6
:10125000C7F3090040F4005040F0007003E0C7F30A
:10126000090040F4205021684860FFF7F7FE05466A
:1012700020688069C0F3401920688069C0F3001AB3
:101280001DE0701C98B1FFF7E9FE401BB04200D88A
:101290006EB9202084F84100606C40F0200060644A
:1012A00000BF002084F8400000BF0120BAE720689A
:1012B0008069C0F3401920688069C0F3001AB9F151
:1012C000000F02D1BAF1000FDBD020688069C0F3B3
:1012D0000010A8B93346002220212046009501F0D5
:1012E0000BFF08B101209DE720202168C86184F828
:1012F000410000BF002084F8400000BF92E73AE0C0
:101300003346002220212046009501F0F5FE08B169
:10131000012087E710202168C86120202168C8616A
:101320000198404512D12068406840F4804021680F
:1013300048603346002220212046009501F0DCFE63
:1013400008B101206EE720202168C8610198401C87
:10135000019001984045FFF478AF202084F84100C7
:10136000606C40F02000606400BF002084F8400002
:1013700000BF012056E7022054E700002DE9F843A2
:101380000446894616461F46DDF8208094F8410041
:10139000202873D100BF94F84000012802D1022018
:1013A000BDE8F883012084F8400000BFFFF756FE37
:1013B000054619230122D1032046009501F09CFE29
:1013C00008B10120ECE7222084F84100102084F8C5
:1013D000420000206064666267856063608DFF285C
:1013E0000CD9FF2020853C48009094F828204FF02D
:1013F00080734946204601F065FE0BE0608D208534
:101400003548009094F828204FF000734946204654
:1014100001F058FE3FE02A464146204601F09CFE7E
:1014200008B10120BCE72068406A616A0870606A00
:10143000401C6062208D401E2085608D401E6085AE
:10144000608D40B3208D30BB434600228021204672
:10145000009501F051FE08B10120A1E7608DFF2841
:101460000DD9FF2020850020009094F828204FF00F
:1014700080734946204601F025FE0CE02AE0608D8D
:1014800020850020009094F828204FF000734946F2
:10149000204601F017FE608D0028BCD12A46414647
:1014A000204601F0A9FE08B1012079E7202021683B
:1014B000C8612068406809490840216848602020C8
:1014C00084F84100002084F8420000BF84F8400006
:1014D00000BF65E7022063E70024008000E800FE0B
:1014E0002DE9F8430446894616461F46DDF820805C
:1014F00094F84100202871D100BF94F840000128E1
:1015000002D10220BDE8F883012084F8400000BF2A
:10151000FFF7A4FD054619230122D10320460095BB
:1015200001F0EAFD08B10120ECE7212084F8410038
:10153000102084F842000020606466626785606362
:10154000608DFF280BD9FF2020853B48009094F840
:101550002820C3024946204601F0B4FD0AE0608D10
:1015600020853548009094F82820030349462046FA
:1015700001F0A8FD3FE02A464146204601F067FE03
:1015800008B10120BEE7606A007821688862606A5D
:10159000401C6062608D401E6085208D401E20854D
:1015A000608D40B3208D30BB434600228021204611
:1015B000009501F0A1FD08B10120A3E7608DFF288F
:1015C0000DD9FF2020850020009094F828204FF0AE
:1015D00080734946204601F075FD0CE02AE0608DDD
:1015E00020850020009094F828204FF00073494691
:1015F000204601F067FD608D0028BCD12A46414697
:10160000204601F0F9FD08B101207BE72020216888
:10161000C861206840680949084021684860202066
:1016200084F84100002084F8420000BF84F84000A4
:1016300000BF67E7022065E70020008000E800FEA9
:101640002DE9FC5F0446894692469B46DDE90C780D
:101650000E9E94F8410020287ED117B1B8F1000FFA
:1016600005D14FF4007060640120BDE8FC9F00BF0D
:1016700094F84000012801D10220F6E7012084F807
:10168000400000BFFFF7EAFC054619230122D10301
:101690002046009501F030FD08B10120E5E7222049
:1016A00084F84100402084F84200002060646762B2
:1016B000A4F82A8060635B46524649462046CDE93D
:1016C000006501F0C1FC30B100BF002084F840008B
:1016D00000BF0120C9E7608DFF280CD9FF202085BD
:1016E0003D48009094F828204FF0807349462046EA
:1016F00001F0E8FC0BE0608D20853748009094F8FD
:1017000028204FF000734946204601F0DBFC00BF63
:101710003346002204212046009501F0EDFC08B17B
:101720000120A2E72068406A616A0870606A401C74
:101730006062208D401E2085608D401E6085608D1A
:1017400048B3208D38BB33460022802120460095C7
:1017500001F0D2FC18B100E03CE0012085E7608D8B
:10176000FF280CD9FF2020850020009094F8282025
:101770004FF080734946204601F0A4FC0BE0608DD9
:1017800020850020009094F828204FF000734946EF
:10179000204601F097FC608D0028B9D12A463146D9
:1017A000204601F029FD08B101205EE720202168D4
:1017B000C8612068406809490840216848602020C5
:1017C00084F84100002084F8420000BF84F8400003
:1017D00000BF4AE7022048E70024008000E800FE3E
:1017E00010B586B00446142101A8FEF749FD18493A
:1017F000206888422AD100BF1648406940F4802002
:10180000144948610846406900F48020009000BFF8
:1018100000BF4FF44070019012200290002003900E
:10182000032004900420059001A90B48FFF716FB44
:1018300000BF0848C06940F400100649C861084666
:10184000C06900F40010009000BF00BF06B010BDDA
:1018500000540040001002400004004803480068A3
:10186000034909780844014908607047A000002036
:10187000A800002010B50848006840F01000064994
:101880000860032000F0A0F8002000F007F800F046
:101890002BF8002010BD00000020024070B5044667
:1018A0000E4800784FF47A71B1FBF0F00C490968EA
:1018B000B1FBF0F5284601F06DF908B1012070BDCB
:1018C000102C07D200222146501E00F03FF8054898
:1018D000046001E00120F2E70020F0E7A80000200A
:1018E000AC000020A400002008B500BF0E488069AD
:1018F00040F001000C4988610846806900F0010051
:10190000009000BF00BF00BF0846C06940F0805093
:10191000C8610846C06900F08050009000BF00BF59
:10192000072000F051F808BD0010024001460846AB
:10193000002809DB00F01F0301229A4043099B00A5
:1019400003F1E023C3F8002100BF70472DE9F05FE9
:1019500080460D461646002702F0E2FC074639464F
:101960002A46334601F00700C0F1070ABAF1040F16
:1019700002D94FF0040A01E0C0F1070AD14600F194
:10198000040ABAF1070F02D24FF0000A01E0A0F1F9
:10199000030AD4464FF0010A0AFA09FAAAF1010A29
:1019A0000AEA020A0AFA0CFA4FF0010B0BFA0CFBD6
:1019B000ABF1010B0BEA030B4AEA0B04214640464C
:1019C00002F0B6FCBDE8F09F00BF00F00702064B36
:1019D00019684FF6FF031940044B0B4343EA0221F9
:1019E000014B196000BF70470CED00E00000FA05E4
:1019F000F8B5044600260025206800F48030B0F5D4
:101A0000803F75D10027E248C06900F0805070B96E
:101A100000BFDF48C06940F08050DD49C86108461A
:101A2000C06900F08050009000BF00BF0127D94876
:101A3000006800F48070B0B9D648006840F4807047
:101A4000D4490860FFF70AFB064606E0FFF706FBED
:101A5000801B642801D90320F8BDCE48006800F43B
:101A600080700028F2D0CA48006A00F44075002D4A
:101A70006CD0A08800F44070A84267D0C448006AC7
:101A800020F440750120010491FAA1F1B1FA81F12D
:101A9000C14A02EB8101C1F8000400204FF48031FB
:101AA00091FAA1F1B1FA81F102EB8101C1F80004D0
:101AB000B748056205F00100B8B3FFF7CFFA064654
:101AC00008E0FFF7CBFA801B41F28831884201D948
:101AD0000320C1E74020022191FAA1F1B1FA81F17E
:101AE00008430121B1EB601F03D1A94800681FE042
:101AF0003CE04020022191FAA1F1B1FA81F10843C2
:101B00000221B1EB601F02D1A148006A10E0402021
:101B1000022191FAA1F1B1FA81F108430421B1EB5C
:101B2000601F03D19A48406802E00FE09848406A7D
:101B30004021022292FAA2F2B2FA82F2114301F09B
:101B40001F020121914008400028BAD09048006A45
:101B500020F44070616808438D490862012F04D168
:101B60000846C06920F08050C86100BF207800F0AE
:101B7000010038B18648006B20F00300A1680843DB
:101B800083490863207800F00200022807D18048CA
:101B9000006B20F44030E16808437D4908632078F9
:101BA00000F00400042807D17948006B20F440209D
:101BB0002169084376490863207800F02000202836
:101BC00007D17348006B20F01000E16908437049A9
:101BD0000863206800F40030B0F5003F07D16C487E
:101BE000406820F48000616D0843694948602078AE
:101BF00000F04000402807D16548006B20F020002D
:101C0000216A084362490863206800F48020B0F527
:101C1000802F07D15E48006B20F04000616A0843C6
:101C20005B490863207800F00800082807D158486D
:101C3000006B20F44010616908435549086320781F
:101C400000F01000102807D15148006B20F440002C
:101C5000A16908434E490863208800F40070B0F57C
:101C6000007F07D14A48406820F40000216B0843F8
:101C700047494860207800F08000802807D1444818
:101C8000C06A20F4F870A16A08434149C8622088FC
:101C900000F48070B0F5807F07D13D48C06A20F421
:101CA0007850E16A08433A49C862208800F48050BD
:101CB000B0F5805F07D13648006B20F48070616B0F
:101CC000084333490863208800F40050B0F5005FF2
:101CD00007D12F48006B20F40070216C08432C4979
:101CE0000863206800F48010B0F5801F07D12848F1
:101CF000006B20F08070A16B0843254908632068C1
:101D000000F40010B0F5001F07D12148006B20F04F
:101D10000070E16B08431E490863206800F48000EE
:101D2000B0F5800F07D11A48006B20F48060616C19
:101D3000084317490863206800F40000B0F5000F5D
:101D400007D11348006B20F40060A16C08431049D0
:101D50000863206800F08070B0F1807F07D10C48E4
:101D6000006B20F40050E16C0843094908632068C7
:101D700000F00070B0F1007F07D10548006B20F43F
:101D80000040216D084302490863002064E600001A
:101D900000100240007000400000424270B504464E
:101DA0000D4600260CB9012070BDA248006800F065
:101DB0000700A8420ED29F48006820F00700284381
:101DC0009C4908600846006800F00700A84201D05E
:101DD0000120E9E7207800F00200022807D19648A8
:101DE000406820F0F000A1680843934948602078DB
:101DF00000F0010000287CD0606801283BD1202041
:101E0000010391FAA1F1B1FA81F108430121B1EB8B
:101E1000601F02D1884800681DE02020010391FA6C
:101E2000A1F1B1FA81F108430221B1EB601F02D1A7
:101E30008148006A0FE02020010391FAA1F1B1FA74
:101E400081F108430421B1EB601F02D17A48406858
:101E500001E07948406A20210A0392FAA2F2B2FA1C
:101E600082F2114301F01F02012191400840002835
:101E70007CD1012098E7606802283BD12020010531
:101E800091FAA1F1B1FA81F108430121B1EB601F90
:101E900002D1694800681DE02020010591FAA1F1F6
:101EA000B1FA81F108430221B1EB601F02D162480F
:101EB000006A0FE02020010591FAA1F1B1FA81F149
:101EC00008430421B1EB601F02D15B48406801E088
:101ED0005948406A20210A0592FAA2F2B2FA82F227
:101EE000114301F01F02012191400840E8BB01208D
:101EF0005AE758E02020022191FAA1F1B1FA81F1CC
:101F000008430121B1EB601F02D14B4800681DE07E
:101F10002020022191FAA1F1B1FA81F108430221B6
:101F2000B1EB601F02D14448006A0FE0202002217B
:101F300091FAA1F1B1FA81F108430421B1EB601FDC
:101F400002D13D48406801E03B48406A202102221E
:101F500092FAA2F2B2FA82F2114301F01F020121B9
:101F60009140084008B901201EE7FFE73248406869
:101F700020F00300616808432F494860FFF76EF8BE
:101F8000064608E0FFF76AF8801B41F28831884274
:101F900001D9032008E72848406800F00C00616878
:101FA000B0EB810FEED12348006800F00700A84293
:101FB0000ED92048006820F0070028431D4908601A
:101FC0000846006800F00700A84201D00120EBE6B7
:101FD000207800F00400042807D11748406820F456
:101FE000E060E168084314494860207800F0080088
:101FF000082808D11048406820F46050216940EA60
:10200000C1000D49486000F051F80B49496801F0E2
:10201000F001F02292FAA2F2B2FA82F2D140074A1B
:10202000515CC8400649086006480068FFF736FC66
:102030000020B9E60020024000100240345200089F
:10204000AC000020A4000020014800687047000098
:10205000AC00002000B5FFF7F7FF0749496801F41D
:10206000E0614FF4E06292FAA2F2B2FA82F2D14059
:10207000024A515CC84000BD0010024044520008B2
:1020800000B5FFF7E1FF0749496801F460514FF4DB
:10209000605292FAA2F2B2FA82F2D140024A515C44
:1020A000C84000BD00100240445200082DE9F04134
:1020B0000025002400270026A0462248456805F098
:1020C0000C00B0B3042802D0082833D102E0DFF8B6
:1020D000788033E005F470104FF4701191FAA1F19B
:1020E000B1FA81F1C84019490E5C1648C06A00F087
:1020F0000F000F2191FAA1F1B1FA81F1C840144902
:102100000C5C05F48030B0F5803F08D122460023F6
:102110000D481946FEF75AF8A0FB067107E0224663
:10212000002309481946FEF751F8A0FB0671B8468E
:1021300004E000E000BFDFF8108000BF00BF4046B1
:10214000BDE8F0810010024000127A00145200082D
:10215000245200082DE9F843044614B90120BDE8D3
:10216000F883207800F0010000287BD0FD4840680B
:1021700000F00C0004280CD0FA48406800F00C0075
:10218000082845D1F748406800F4C030B0F5803FDA
:102190003ED12020010391FAA1F1B1FA81F1084367
:1021A0000121B1EB601F02D1EE4800681DE0202044
:1021B000010391FAA1F1B1FA81F108430221B1EBD7
:1021C000601F02D1E748006A0FE02020010391FA66
:1021D000A1F1B1FA81F108430421B1EB601F02D1F2
:1021E000E048406801E0DF48406A20210A0392FA93
:1021F000A2F2B2FA82F2114301F01F0201219140D2
:1022000008400028B1D0606800282BD10120A6E743
:1022100000BF6068B0F5803F06D1D248006840F446
:102220008030D049086029E0606858B9CD4800681E
:1022300020F48030CB4908600846006820F48020F4
:1022400008601BE06068B0F5A02F0CD1C54800689D
:1022500040F48020C34908600846006840F480309C
:1022600008600BE099E0BF48006820F48030BD4969
:1022700008600846006820F48020086000BF60689D
:10228000A0B3FEF7EBFE054606E0FEF7E7FE401BB7
:10229000642801D9032062E72020010391FAA1F10B
:1022A000B1FA81F108430121B1EB601F02D1AD48C1
:1022B00000681EE02020010391FAA1F1B1FA81F13A
:1022C00008430221B1EB601F02D1A648006A10E06A
:1022D0002020010391FAA1F1B1FA81F10843042110
:1022E000B1EB601F03D19F48406802E010E09D48B9
:1022F000406A20210A0392FAA2F2B2FA82F2114352
:1023000001F01F020121914008400028BDD044E0A7
:10231000FEF7A4FE054606E0FEF7A0FE401B64287B
:1023200001D903201BE72020010391FAA1F1B1FAA2
:1023300081F108430121B1EB601F02D18948006897
:102340001DE02020010391FAA1F1B1FA81F10843C7
:102350000221B1EB601F02D18248006A0FE0202009
:10236000010391FAA1F1B1FA81F108430421B1EB23
:10237000601F02D17B48406801E07A48406A202112
:102380000A0392FAA2F2B2FA82F2114301F01F029A
:102390000121914008400028BED1207800F00200C1
:1023A00002285DD16F48406800F00C0060B16D48B4
:1023B000406800F00C00082853D16A48406800F4D7
:1023C000C030B0F5004F4CD12020022191FAA1F18C
:1023D000B1FA81F108430121B1EB601F02D16148DC
:1023E00000681DE02020022191FAA1F1B1FA81F1EB
:1023F00008430221B1EB601F02D15A48006A0FE086
:102400002020022191FAA1F1B1FA81F108430421BF
:10241000B1EB601F02D15348406801E05148406A67
:102420002021022292FAA2F2B2FA82F2114301F0C2
:102430001F0201219140084020B1E068012801D02D
:1024400001208CE64748006820F0F800F82292FA54
:10245000A2F2B2FA82F22169914008434149086030
:10246000B0E0E068E0B3012090FAA0F1B1FA81F1A8
:102470003D4A42F82100FEF7F1FD054606E0FEF771
:10248000EDFD401B022801D9032068E6202002212F
:1024900091FAA1F1B1FA81F108430121B1EB601F7A
:1024A00002D1304800681EE02020022191FAA1F1FB
:1024B000B1FA81F108430221B1EB601F02D1294832
:1024C000006A10E02020022191FAA1F1B1FA81F115
:1024D00008430421B1EB601F03D12248406802E0A9
:1024E0001EE02048406A2021022292FAA2F2B2FAAB
:1024F00082F2114301F01F0201219140084000289F
:10250000BDD01848006820F0F800F82292FAA2F234
:10251000B2FA82F22169914008431249086051E001
:102520000020012191FAA1F1B1FA81F10E4A42F89D
:102530002100FEF793FD054606E0FEF78FFD401BE8
:10254000022801D903200AE62020022191FAA1F1F4
:10255000B1FA81F108430121B1EB601F06D10148B6
:10256000006821E0001002400000424220200221C9
:1025700091FAA1F1B1FA81F108430221B1EB601F98
:1025800002D1F948006A0FE02020022191FAA1F15E
:10259000B1FA81F108430421B1EB601F02D1F24886
:1025A000406801E0F048406A2021022292FAA2F23B
:1025B000B2FA82F2114301F01F020121914008405A
:1025C0000028BAD1207800F00800082851D16069AD
:1025D00080B3012090FAA0F1B1FA81F1E34A02EB55
:1025E0008101C1F88004FEF739FD054606E0FEF7DB
:1025F00035FD401B022801D90320B0E560200221EF
:1026000091FAA1F1B1FA81F108430121B1EB601F08
:1026100002D1D54800681EE06020022191FAA1F1A4
:10262000B1FA81F108430221B1EB601F03D1CE481A
:10263000006A10E01EE06020022191FAA1F1B1FAD7
:1026400081F108430421B1EB601F02D1C648406804
:1026500001E0C548406A6021022292FAA2F2B2FA71
:1026600082F2114301F01F0201219140084000282D
:10267000BDD04FE00020012191FAA1F1B1FA81F122
:10268000BA4A02EB8101C1F88004FEF7E7FC054677
:1026900006E0FEF7E3FC401B022801D903205EE5BB
:1026A0006020022191FAA1F1B1FA81F108430121E0
:1026B000B1EB601F02D1AC4800681DE06020022130
:1026C00091FAA1F1B1FA81F108430221B1EB601F47
:1026D00002D1A548006A0FE06020022191FAA1F121
:1026E000B1FA81F108430421B1EB601F02D19E4889
:1026F000406801E09C48406A6021022292FAA2F2FE
:10270000B2FA82F2114301F01F0201219140084008
:102710000028BED1207800F00400042875D14FF0C5
:1027200000089148C06900F0805078B900BF8E4819
:10273000C06940F080508C49C8610846C06900F00B
:102740008050009000BF00BF4FF00108884800682B
:1027500000F48070B0B98648006840F48070844905
:102760000860FEF77BFC054606E0FEF777FC401BA1
:10277000642801D90320F2E47D48006800F48070E9
:102780000028F2D000BFA068012806D17648006A70
:1027900040F001007449086227E0A06858B9724807
:1027A000006A20F00100704908620846006A20F0C3
:1027B0000400086219E0A06805280BD16A48006A85
:1027C00040F00400684908620846006A40F00100D1
:1027D00008620AE06448006A20F001006249086269
:1027E0000846006A20F00400086200BFA068B8B381
:1027F000FEF734FC054609E0FEF730FC401B41F2D1
:102800008831884202D90320A9E48CE040200221CB
:1028100091FAA1F1B1FA81F108430121B1EB601FF6
:1028200002D1514800681EE04020022191FAA1F136
:10283000B1FA81F108430221B1EB601F02D14A488D
:10284000006A10E04020022191FAA1F1B1FA81F171
:1028500008430421B1EB601F03D14348406802E004
:1028600010E04148406A4021022292FAA2F2B2FAF4
:1028700082F2114301F01F0201219140084000281B
:10288000BAD046E0FEF7EAFB054608E0FEF7E6FBB5
:10289000401B41F28831884201D903205FE4402087
:1028A000022191FAA1F1B1FA81F108430121B1EBC2
:1028B000601F02D12C4800681DE04020022191FADF
:1028C000A1F1B1FA81F108430221B1EB601F02D1FD
:1028D0002548006A0FE04020022191FAA1F1B1FAE7
:1028E00081F108430421B1EB601F02D11E4840680A
:1028F00001E01D48406A4021022292FAA2F2B2FA97
:1029000082F2114301F01F0201219140084000288A
:10291000BCD1B8F1010F05D11348C06920F0805037
:102920001149C86100BFA06900287DD00E484068E9
:1029300000F00C00082878D0A069022876D1002089
:102940004FF0807191FAA1F1B1FA81F1074A42F892
:102950002100FEF783FB05460CE0FEF77FFB401BE2
:10296000022807D9032052E400100240000042422E
:10297000007000402020010591FAA1F1B1FA81F127
:1029800008430121B1EB601F02D1804800681DE0BF
:102990002020010591FAA1F1B1FA81F10843022149
:1029A000B1EB601F02D17948006A0FE020200105D9
:1029B00091FAA1F1B1FA81F108430421B1EB601F52
:1029C00002D17248406801E07048406A20210A053F
:1029D00092FAA2F2B2FA82F2114301F01F0201212F
:1029E000914008400028B8D100BF6848C06A20F074
:1029F0000F00616A08436549C862D4E907100843BB
:102A00006249496821F4761108436049486000BF73
:102A10000120010691FAA1F1B1FA81F15C4A42F874
:102A20002100FEF71BFB02E0ADE094E043E0054629
:102A300006E0FEF713FB401B022801D903202AE41D
:102A40002020010591FAA1F1B1FA81F10843012199
:102A5000B1EB601F02D14D4800681DE02020010548
:102A600091FAA1F1B1FA81F108430221B1EB601FA3
:102A700002D14648006A0FE02020010591FAA1F139
:102A8000B1FA81F108430421B1EB601F02D13F4844
:102A9000406801E03D48406A20210A0592FAA2F20E
:102AA000B2FA82F2114301F01F0201219140084065
:102AB0000028BED067E000214FF0807090FAA0F0AF
:102AC000B0FA80F0324A42F82010FEF7C7FA054605
:102AD00006E0FEF7C3FA401B022801D9032021E4D7
:102AE0002020010591FAA1F1B1FA81F108430121F9
:102AF000B1EB601F02D1254800681DE020200105D0
:102B000091FAA1F1B1FA81F108430221B1EB601F02
:102B100002D11E48006A0FE02020010591FAA1F1C0
:102B2000B1FA81F108430421B1EB601F02D11748CB
:102B3000406801E01548406A20210A0592FAA2F295
:102B4000B2FA82F2114301F01F02012191400840C4
:102B50000028BED117E0A069012800D171E40B481C
:102B60004668C76A06F4C031E069814209D106F4BB
:102B70007011206A814204D107F00F01606A81421E
:102B800001D001205DE400205BE400000010024061
:102B90000000424270B504462546681EB0F1807FB1
:102BA00001D301200FE0681E4FF0E02148610F21A2
:102BB0004FF0FF3001F0BCFB00204FF0E0218861B6
:102BC00007200861002070BD704770472DE9F0476D
:102BD00004462068C569206806682068876840F652
:102BE0000F0005EA0008B8F1000F0CD105F0200035
:102BF00048B106F0200030B1206E10B12046216EA1
:102C00008847BDE8F087B8F1000F7DD007F00100DC
:102C100018B906F490700028F7D005F0010048B10B
:102C200006F4807030B1012021680862E06F40F046
:102C30000100E06705F0020048B107F0010030B183
:102C4000022021680862E06F40F00400E06705F0B0
:102C5000040048B107F0010030B104202168086287
:102C6000E06F40F00200E06705F0080060B106F098
:102C7000200010B907F0010030B108202168086277
:102C8000E06F40F00800E06705F4006050B106F026
:102C9000806038B14FF4006021680862E06F40F056
:102CA0002000E067E06F80B305F0200038B106F047
:102CB000200020B1206E10B12046216E8847D4F844
:102CC0007C902068806800F04000402802D009F025
:102CD000280030B3204601F00EF92068806800F02B
:102CE0004000402819D12068806820F04000216809
:102CF0008860E06E68B12148E16E4863E06EFEF7DF
:102D00006DF810B1E06E01E011E00FE0416B884713
:102D10000CE02046FFF759FF08E02046FFF755FF7B
:102D200004E02046FFF751FF0020E06769E705F463
:102D3000801050B107F4800038B14FF48010216842
:102D400008622046FFF740FF5BE705F0800040B1D6
:102D500006F0800028B1606E10B12046616E884791
:102D60004FE705F0400030B106F0400018B12046B2
:102D700001F0D2F845E700BF43E70000DF3E00085E
:102D800010B504460CB9012010BDA06900B100E0E7
:102D900000BF606F28B9002084F87000204600F062
:102DA00029F8242060672068006820F0010021686D
:102DB0000860204601F0C0F8012800D1E4E7606A0D
:102DC00010B1204600F0D8FF2068406820F4904001
:102DD000216848602068806820F02A0021688860A7
:102DE0002068006840F0010021680860204601F07A
:102DF0003FF8C9E710B586B00446142101A8FDF7D5
:102E00003FFA1B492068884230D100BF1948C06989
:102E100040F400301749C8610846C06900F400302A
:102E2000009000BF00BF00BF0846406940F400307A
:102E300048610846406900F40030009000BF00BFC0
:102E40000C200190022002900020039004900720A3
:102E5000059001A94FF09040FEF700F800221146BE
:102E60002620FEF773FD2620FEF760FD06B010BD9C
:102E700000440040001002402DE9F84F04460E4681
:102E800017469946606F20285CD106B117B901201A
:102E9000BDE8F88F00BF94F87000012801D102202E
:102EA000F6E7012084F8700000BF0020E0672120D1
:102EB0006067FEF7D3F88246A4F85070A4F8527009
:102EC000A068B0F5805F04D1206910B90025B04634
:102ED00002E035464FF000081DE0534600228021F5
:102EE0002046CDF8009001F0A3F908B10320CFE708
:102EF00045B9B8F80000C0F308002168088508F15A
:102F0000020803E02878216808856D1CB4F8520097
:102F1000401EA4F85200B4F852000028DDD15346F8
:102F2000002240212046CDF8009001F081F908B13F
:102F30000320ADE72020606700BF002084F8700008
:102F400000BFA5E70220A3E7704700BFFEE70168C6
:102F50008969C1F3400111B10021026891620168E1
:102F6000896901F0010129B90168896941F001010C
:102F7000026891617047000070B504460D46164620
:102F800020688069C0F3001000283DD017E0681C5D
:102F9000A8B1FEF763F8801BA84200D87DB9606C29
:102FA00040F020006064202084F84100002084F874
:102FB000420000BF84F8400000BF012070BD2068BF
:102FC0008069C0F340100028E1D010202168C8615A
:102FD00020202168C8612046FFF7B9FF20684068BB
:102FE0000A49084021684860606C40F00400606451
:102FF000202084F84100002084F8420000BF84F8BB
:10300000400000BF0120D9E70020D7E700E800FE1C
:103010002DE9FC4104460D461646D0278DF80440A4
:103020000A20012301AA394600900648FEF758FA03
:10303000642033462A46394600900248FEF79EF93E
:10304000BDE8FC81240200202DE9F84304468946AE
:1030500015461E46DDE908781948F2B200234946B4
:103060000090204600F02EF842463946204600F0F7
:10307000EEF810B10120BDE8F883012E03D1E8B2CB
:10308000216888620EE0C5F3072021688862424605
:103090003946204600F0DBF808B10120EBE7E8B242
:1030A000216888623B46002240212046CDF80080FE
:1030B00000F022F808B10120DDE70020DBE7000086
:1030C00000200080F0B5059C05686D684FF48066AF
:1030D00006EA545666F0FC2646F4C046B543C1F3F2
:1030E00009064FF47F0707EA02473E431E43264383
:1030F000354306687560F0BD2DE9F04104460E4683
:1031000017461D46DDF8188019E0681CB8B1FDF7B8
:10311000A5FFA0EB0800A84200D885B9606C40F07C
:1031200020006064202084F84100002084F84200E0
:1031300000BF84F8400000BF0120BDE8F081206896
:1031400080693040B04201D1012000E00020B84247
:10315000DBD00020F1E7000070B504460D461646AE
:1031600040E0324629462046FFF706FF08B101201D
:1031700070BD20688069C0F34010F8B12068806994
:10318000C0F3800018B1208D08B10020F0E72020A6
:103190002168C86120684068164908402168486075
:1031A00000206064202084F84100002084F8420060
:1031B00000BF84F8400000BF0120D9E7FDF74EFFB3
:1031C000801BA84200D86DB9606C40F0200060649C
:1031D000202084F8410000BF002084F8400000BF98
:1031E0000120C5E720688069C0F380000028B8D0BE
:1031F0000020BDE700E800FE70B504460D46164607
:103200001DE0324629462046FFF7B6FE08B10120F0
:1032100070BDFDF723FF801BA84200D87DB9606C0C
:1032200040F020006064202084F84100002084F8F1
:10323000420000BF84F8400000BF0120E8E720689A
:103240008069C0F340100028DBD00020E0E770B5B3
:1032500004460D4616461FE0324629462046FFF733
:103260008BFE08B1012070BD681CA8B1FDF7F6FE09
:10327000801BA84200D87DB9606C40F020006064DB
:10328000202084F84100002084F8420000BF84F828
:10329000400000BF0120E6E720688069C0F34000DD
:1032A0000028D9D00020DEE77CB504460D468DF815
:1032B00004408DF80550D0266420022301AA31462F
:1032C00000900248FEF70CF97CBD000024020020AB
:1032D0002DE9F04F85B00024002500260027A046E8
:1032E000A146A24600200490039002900190009015
:1032F0009FEDDD0ADD4880ED000A9FEDDB0ADC482A
:1033000080ED000A9FEDD80ADA4880ED000A9FEDB3
:10331000D60AD94880ED000A9FEDD30A80ED000A55
:103320009FEDD10A80ED000AA34665E000F0F0FBB6
:10333000D14890ED000AD14800EB8B0080ED000AE7
:10334000CF4890ED000ACF4800EB8B0080ED000ADB
:10335000CD4890ED000ACD4800EB8B0080ED000ACF
:10336000C54890ED000ACA4800EB8B0080ED000ACA
:10337000C34890ED000AC74800EB8B0080ED000ABF
:10338000C14890ED000AC44800EB8B0080ED000AB4
:10339000B64890ED000AC14800EB8B0080ED000AB2
:1033A000B34890ED000ABE4800EB8B0080ED000AA8
:1033B000B04890ED000ABB4800EB8B0080ED000A9E
:1033C000AA4890ED000AB84800EB8B0080ED000A97
:1033D000A74890ED000AB54800EB8B0080ED000A8D
:1033E000A44890ED000AB24800EB8B0080ED000A83
:1033F0000BF101001FFA80FBBBF57A7F96DB002002
:10340000C6E09E4901EB800191ED000A9B4901EB6A
:103410008401D1ED000AB4EEE00AF1EE10FA00D218
:103420000446984901EB800191ED000A954901EBB2
:103430008501D1ED000AB4EEE00AF1EE10FA00D2F7
:103440000546924901EB800191ED000A8F4901EB9D
:103450008601D1ED000AB4EEE00AF1EE10FA00D2D6
:1034600006468B4901EB800191ED000A884901EB8A
:103470008701D1ED000AB4EEE00AF1EE10FA00DDAA
:103480000746844901EB800191ED000A814901EB77
:103490008801D1ED000AB4EEE00AF1EE10FA00DD89
:1034A00080467D4901EB800191ED000A7A4901EBEC
:1034B0008901D1ED000AB4EEE00AF1EE10FA00DD68
:1034C0008146764901EB800191ED000A734901EBD9
:1034D0008A01D1ED000AB4EEE00AF1EE10FA00D252
:1034E00082466F4901EB800191ED000A6C4A049914
:1034F00002EB8101D1ED000AB4EEE00AF1EE10FA20
:1035000000D20490674901EB800191ED000A654A01
:10351000039902EB8101D1ED000AB4EEE00AF1EE6D
:1035200010FA00D20390604901EB800191ED000A8E
:103530005D4A029902EB8101D1ED000AB4EEE00A86
:10354000F1EE10FA00DD0290584901EB800191ED97
:10355000000A564A019902EB8101D1ED000AB4EE4E
:10356000E00AF1EE10FA00DD0190514901EB800113
:1035700091ED000A4E4A009902EB8101D1ED000A5B
:10358000B4EEE00AF1EE10FA00DD0090411C88B2C2
:10359000B0F57A7FFFF635AF3D4800EB840090ED43
:1035A000000A444880ED000A3A4800EB850090ED9F
:1035B000000A404880ED010A374800EB860090ED94
:1035C000000A3C4880ED020A314800EB870090ED8C
:1035D000000A384880ED030A2E4800EB880090ED81
:1035E000000A344880ED040A2B4800EB890090ED76
:1035F000000A304880ED050A2B4800EB8A0090ED68
:10360000000A2C4880ED060A2849049801EB800046
:1036100090ED000A274880ED070A2549039801EB41
:10362000800090ED000A234880ED080A1E490298A8
:1036300001EB800090ED000A1E4880ED090A1B494D
:10364000019801EB800090ED000A1A4880ED0A0A0B
:103650001749009801EB800090ED000A154880EDB5
:103660000B0A05B0BDE8F08F0000000088000020C4
:103670008C0000209000002094000020B80800205A
:1036800098000020581800209C000020F8270020F7
:103690009837002038470020D85600207866002050
:1036A00018760020B885002058950020F8A4002046
:1036B00098B400207002002070B5044600258021D7
:1036C0006B20FFF7F1FD6420FDF7B4FB207800F0DC
:1036D00007052079402101EA8010054329466B2027
:1036E000FFF7E2FD6420FDF7A5FB0025E07800F080
:1036F000070529461A20FFF7D7FD00256078182115
:1037000001EAC00529461B20FFF7CEFD0025A07861
:10371000182101EAC00529461C20FFF7C5FD042039
:1037200000F03EF9A07830B101280AD002280ED06E
:10373000032818D111E09FED1F0A1F4880ED000AF1
:1037400012E09FED1E0A1C4880ED000A0CE09FED80
:103750001C0A194880ED000A06E09FED1A0A164877
:1037600080ED000A00E000BF00BF607830B10128A2
:103770000AD002280ED0032818D111E09FED120ABA
:10378000124880ED000A12E09FED110A0F4880ED0B
:10379000000A0CE09FED0F0A0C4880ED000A06E0DD
:1037A0009FED040A094880ED000A00E000BF00BF59
:1037B00070BD000000007A3D6C0000200000FA3D62
:1037C00000007A3E0000FA3E0000FA3B7000002044
:1037D00000007A3C0000FA3C10B588B004460A218B
:1037E00001220DF11D001346CDE9012100903A227E
:1037F000D0212748FDF724FF9DF81D00F0B300BF3E
:103800000A20062105AA0123CDE9002102903B22CE
:10381000D0211F48FDF714FF9DF815009DF81410E6
:1038200000EB012000B220809DF817009DF81610D3
:1038300000EB012000B260809DF819009DF818107F
:1038400000EB012000B2A080062203A94320FFF76D
:10385000DFFB9DF80D009DF80C1000EB012000B27D
:103860000C4908809DF80F009DF80E1000EB012018
:1038700000B2084948809DF8110000E006E09DF87C
:10388000101000EB012000B20249888008B010BD82
:1038900024020020800000201CB504466846FFF783
:1038A0009BFFBDF9000000EE100AB8EEC00ADFED84
:1038B000170A30EE200A1648D0ED000A20EE200A42
:1038C00084ED000ABDF9020000EE100AB8EEC00A4D
:1038D000DFED0E0A30EE200A0D48D0ED000A20EE92
:1038E000200A84ED010ABDF9040000EE100AB8EECA
:1038F000C00ADFED060A30EE200A0548D0ED000AC6
:1039000020EE200A84ED020A1CBD00000000000029
:103910006C000020044909880180034949884180DE
:103920000149898881807047800000200CB50246DB
:103930006846FFF7EFFFBDF9000000EE100AB8EE91
:10394000C00A1148D0ED000A20EE200A82ED000ADC
:10395000BDF9020000EE100AB8EEC00A0A48D0ED28
:10396000000A20EE200A82ED010ABDF9040000EEF3
:10397000100AB8EEC00A0448D0ED000A20EE200A72
:1039800082ED020A0CBD00007000002010B5044654
:103990004C2221460148FCF75AFC10BD24020020AD
:1039A00010B5044621461920FFF77EFC10BD00002B
:1039B00000B587B0142102A8FCF762FC00BF2948BB
:1039C000406940F40020274948610846406900F4F6
:1039D0000020019000BF00BF00BF0846406940F4CE
:1039E000800048610846406900F48000019000BFF3
:1039F00000BF00BF0846406940F4003048610846F7
:103A0000406900F40030019000BF00BF00BF0846CD
:103A1000406940F4802048610846406900F48020F5
:103A2000019000BF00BF002220214FF09040FDF721
:103A30000FFB4FF4005002900B48039000200490BD
:103A400002A90A48FDF70AFA2020029001200390FB
:103A500000200490059002A94FF09040FDF7FEF978
:103A600007B000BD0010024000002110000800480F
:103A700010B51248124908601248486000211048E9
:103A800081600121C1600021016141618161C161E9
:103A90000162FDF753FB08B1FDF79FF900210848CB
:103AA000FDF7E2FA08B1FDF798F900210448FDF7A7
:103AB00010FB08B1FDF791F910BD00000054004063
:103AC000580100200E09002010B50D480D4908606E
:103AD0004FF41640486000210A488160C1600161CE
:103AE0000C21416100218161C16101620020054911
:103AF00048620846FFF744F908B1FDF76EF910BDBA
:103B000000440040A401002000BFFEE7704770475A
:103B100010B5002437E05F48FFF7BEFE5E48FFF7B0
:103B200005FF5C4890ED000A5C4800EB840080EDE6
:103B3000000A584890ED010A594800EB840080EDD6
:103B4000000A544890ED020A564800EB840080EDCC
:103B5000000A514890ED000A534800EB840080EDC4
:103B6000000A4D4890ED010A504800EB840080EDBA
:103B7000000A494890ED020A4D4800EB840080EDB0
:103B8000000A601C84B20A2CC5DB002049E04349CE
:103B900001EB800191ED000A4649D1ED000A30EEBB
:103BA000200A81ED000A3E4901EB800191ED000AF7
:103BB0004149D1ED000A30EE200A81ED000A394971
:103BC00001EB800191ED000A3C49D1ED000A30EE95
:103BD000200A81ED000A344901EB800191ED000AD1
:103BE0003749D1ED000A30EE200A81ED000A2F4955
:103BF00001EB800191ED000A3249D1ED000A30EE6F
:103C0000200A81ED000A2A4901EB800191ED000AAA
:103C10002D49D1ED000A30EE200A81ED000A411C49
:103C200088B20A28B3DB234890ED000AF2EE040ABA
:103C300080EE201A80ED001A1F4890ED000AF2EE87
:103C4000040A80EE201A80ED001A1C4890ED000A4C
:103C5000F2EE040A80EE201A80ED001A184890ED6A
:103C6000000AF2EE040A80EE201A80ED001A1548D0
:103C700090ED000AF2EE040A80EE201A80ED001AA0
:103C8000114890ED000AF2EE040A80EE201A80ED51
:103C9000001A10BDAC020020A0020020B8020020D3
:103CA000B8030020B8040020B8050020B8060020A2
:103CB000B8070020880000208C0000209000002021
:103CC00094000020980000209C000020704710B550
:103CD000FDF7C4FD10BD00B5A5B028211BA8FCF759
:103CE000CFFA142116A8FCF7CBFA58216846FCF746
:103CF000C7FA02201B9001201E9010201F90022066
:103D0000219081031BA8C1614FF4E01101620021E1
:103D10004162FEF71FFA08B1FDF75FF80F20169019
:103D200002201790002018904FF480601990002016
:103D30001A90022116A8FEF731F808B1FDF74DF8E8
:103D4000222000900020039007906846FDF750FE67
:103D500008B1FDF742F825B000BD00000548006835
:103D600040F47000034908604FF000600149803959
:103D70000860704788ED00E090F8241001F0010120
:103D800039B10168496821F40031826A114302683F
:103D9000516090F8241001F00201022907D1016856
:103DA000496821F48031C26A11430268516090F879
:103DB000241001F00401042907D10168496821F4A5
:103DC0008021026B11430268516090F8241001F0C9
:103DD0000801082907D10168496821F40041426BB4
:103DE00011430268516090F8241001F0100110296D
:103DF00007D10168896821F48051826B1143026800
:103E0000916090F8241001F02001202907D1016869
:103E1000896821F40051C26B11430268916090F8E7
:103E2000241001F04001402913D10168496821F4B0
:103E30008011026C114302685160016CB1F5801F62
:103E400007D10168496821F4C001426C114302683E
:103E5000516090F8241001F08001802907D1016899
:103E6000496821F40021826C114302685160704757
:103E700038B504460020E067FDF7F0F805462068F5
:103E8000006800F0080008280CD16FF07E402B4637
:103E900000224FF400110090204600F0C9F908B14B
:103EA000032038BD2068006800F0040004280CD10D
:103EB0006FF07E402B4600224FF480010090204698
:103EC00000F0B6F908B10320EBE720206067A06797
:103ED00000BF002084F8700000BF00BFE1E770B5AC
:103EE00005466C6A0020A4F85A00A4F85200204647
:103EF000FEF76BFE70BD0168096821F490710268DD
:103F000011600168896821F0010102689160202137
:103F1000816700210166704710B50446206800687B
:103F200020F0400021680860202060670020606663
:103F30002046FFF709F810BD2DE9F0470446002799
:103F4000BA462169A068084361690843E16940EA0B
:103F5000010820680068AD49084040EA080021686F
:103F600008602068406820F44050E16808432168F8
:103F70004860D4F81880206A40EA08082068806801
:103F800020F4306040EA08002168886000BFA04942
:103F90002068884216D19F48006B00F0030030B1C2
:103FA000012808D0022808D0032808D101E0012503
:103FB00007E0022505E0042503E0082501E01025BF
:103FC00000BF78E094492068884219D19148006B7D
:103FD00000F4403048B1B0F5803F0AD0B0F5003F62
:103FE00009D0B0F5403F08D101E0002507E00225E7
:103FF00005E0042503E0082501E0102500BF5AE094
:1040000086492068884219D18248006B00F440201C
:1040100048B1B0F5802F0AD0B0F5002F09D0B0F527
:10402000402F08D101E0002507E0022505E0042526
:1040300003E0082501E0102500BF3CE07849206836
:10404000884219D17348006B00F4401048B1B0F5B4
:10405000801F0AD0B0F5001F09D0B0F5401F08D16D
:1040600001E0002507E0022505E0042503E008251E
:1040700001E0102500BF1EE06A492068884219D17E
:104080006448006B00F4400048B1B0F5800F0AD0DE
:10409000B0F5000F09D0B0F5400F08D101E00025C0
:1040A00007E0022505E0042503E0082501E01025CE
:1040B00000BF00E0102500BFE069B0F5004F54D10B
:1040C000092D3AD2DFE805F005101B3924393939BA
:1040D0002F00FDF7BFFF06467000616800EB51003E
:1040E000B0FBF1F087B22BE0FDF7CAFF0646700087
:1040F000616800EB5100B0FBF1F087B220E04A4963
:10410000606801EB50006168B0FBF1F087B217E026
:10411000FDF7CCFF06467000616800EB5100B0FB74
:10412000F1F087B20CE04FF48031606801EB500091
:104130006168B0FBF1F087B202E04FF0010A00BF06
:1041400000BF102F0ED3B7F5803F0BD24FF6F070A3
:1041500007EA0009C7F3420049EA00092068C0F8ED
:104160000C904DE04FF0010A4AE0092D3AD2DFE809
:1041700005F005101B39243939392F00FDF76AFF86
:104180000646606806EB50006168B0FBF1F087B24C
:104190002BE0FDF775FF0646606806EB500061688E
:1041A000B0FBF1F087B220E02049606801EB5000DD
:1041B0006168B0FBF1F087B217E0FDF777FF0646C4
:1041C000606806EB50006168B0FBF1F087B20CE06C
:1041D0004FF40041606801EB50006168B0FBF1F002
:1041E00087B202E04FF0010A00BF00BF102F05D3D5
:1041F000B7F5803F02D22068C76001E04FF0010AA6
:104200000020206660665046BDE8F087F369FFEF46
:1042100000380140001002400044004000480040C7
:10422000004C0040005000400024F40000127A00CE
:104230002DE9F04104460D4617469846069E45E096
:10424000701C002842D0FCF709FFA0EB0800B04228
:1042500000D8B6B92068006820F4D07021680860E2
:104260002068806820F00100216888602020606755
:10427000A06700BF002084F8700000BF0320BDE8E5
:10428000F0812068006800F00400F8B12068C0697F
:10429000C0F3C020D0B14FF40060216808622068EC
:1042A000006820F4D070216808602068806820F0E1
:1042B00001002168886020206067A067E06700BF78
:1042C000002084F8700000BF0320D8E72068C06990
:1042D0002840A84201D1012000E00020B842AFD020
:1042E0000020CCE710B50248FEF770FC10BD0000BE
:1042F000A401002000BFFEE70FB4084B10B504A9CD
:1043000002AA039800F0FAF8044602A9002000F07F
:104310008CFC204610BC5DF814FB00002B4C000800
:1043200002480068C0F30220704700000CED00E076
:1043300010B5002804DB0A07130E054A135406E0E3
:104340000A07140E034A00F00F031B1FD45410BDBC
:1043500000E400E018ED00E002E008C8121F08C108
:10436000002AFAD170477047002001E001C1121FF6
:10437000002AFBD1704700002DE9FF5F82B00021C9
:10438000DDE90430020DDDF840B0034318D044F6F7
:104390001050A2F2FF3242431514119801281FD089
:1043A000A5EB0B00401C5FEA000A4FF000064E4FE1
:1043B000DFF83891B046504615D5CAF1000413E035
:1043C000119801244AA3012801D16FEA0B01029838
:1043D000119AC0E90031C0E9024206B0BDE8F09F81
:1043E000CBF10000DFE704460021404A491842EBC8
:1043F0000450CDE9001012E0E00707D032463B46FA
:1044000040464946FCF752F98046894632463B46CB
:1044100010461946FCF74AF906460F466410002C70
:10442000EAD1DDE90401DDE90023BAF1000F06DA83
:10443000FCF73CF942464B46FCF738F905E0FBF740
:104440002AFF42464B46FBF726FF04460E46002253
:10445000284BFCF7B5F903D84FF0FF30014607E0D1
:104460000022254B20463146FCF779F8FCF790F9FD
:10447000102409E0002C0ADB0A220023FBF7A6FE29
:10448000039B30321A55641E50EA0102F2D1641CBB
:10449000039AC4F111031444119A012A03D0012292
:1044A00008430DD10AE0084304D000204FF0110B5F
:1044B000119072E7A3EB0B056D1E0DE05B4504DD6B
:1044C0004FF0000205F1010504E003DA4FF00002AD
:1044D000A5F10105002AECD002981199C0E902313A
:1044E000C0E9004579E70000000014400000F03FFB
:1044F000300000000000F0430000E03F2DE9FF4FD6
:1045000095B09B468946064600250FE2252877D1BF
:1045100000242746F84A0121059400E0044316F8D8
:10452000013F203B01FA03F01042F7D130782A28EE
:1045300011D06FF02F033078A0F13002092A16D87D
:10454000059A44F0020402EB820203EB420210449B
:10455000761C0590EFE759F8042B0592002A03DA40
:10456000504244F40054059044F00204761C307824
:104570002E2816D116F8010F44F004042A280DD075
:104580006FF02F023078A0F13003092B09D807EB28
:10459000870302EB4303C718761CF3E759F8047B43
:1045A000761C30786C280FD006DC4C2817D0682891
:1045B0000DD06A2814D104E0742810D07A280FD1C5
:1045C0000DE044F400140AE044F4801401E044F4E3
:1045D00040147278824202D104F58014761C761C55
:1045E000307866280BD013DC582877D009DC0028F7
:1045F00075D04528F6D04628F4D047281AD19DE139
:1046000018E0632835D0642879D0652812D195E167
:10461000702873D008DC6728F1D069286FD06E2825
:104620000DD06F2806D1B5E073282CD0752875D031
:10463000782874D05A46179990476D1C75E1C4F3D9
:104640000250022809D003280DD0D9F80010042800
:104650000DD00D6009F1040967E1D9F80010EA17DF
:10466000C1E90052F6E7D9F800100D80F2E70D70AD
:10467000F0E719F8041B8DF8001000208DF80100F8
:10468000EA46012003E059F804AB4FF0FF30610720
:104690004FF0000102D40DE008F101018846B94253
:1046A0000FDA8045F8DB1AF808100029F4D108E089
:1046B00008F1010188468142FADB1AF80810002946
:1046C000F6D105985B46A0EB080721463846179AB5
:1046D00000F094FA284400EB080507E04DE029E1DA
:1046E0000DE01AF8010B5A4617999047B8F10108E6
:1046F000F7D25B4621463846179A13E142E00A2278
:104700000092C4F302524FF0000A022A08D059F86E
:1047100004CB032A4FEAEC710AD00DE029E02AE02D
:1047200009F1070121F00702F2E802C1914609E010
:104730000FFA8CFC4FEAEC71042A03D14FFA8CFC7F
:104740004FEAEC71002907DA0A460021DCF1000C7F
:1047500061EB02012D2202E0220504D52B228DF807
:104760000420012203E0E20701D02022F7E790466F
:1047700059E00A2102E010220DE010214FF0000A5A
:1047800000910BE010224FF0000A44F004040827C7
:10479000009203E008224FF0000A0092C4F3025294
:1047A000022A05D059F804CB0021032A08D009E0D9
:1047B00009F1070121F00702F2E802C1914605E084
:1047C0001FFA8CFC042A01D10CF0FF0C4FF00008FA
:1047D000220728D5702806D0009B83F0100353EAE7
:1047E0000A0305D00EE040228DF80420012208E0E3
:1047F0005CEA010206D030228DF804208DF8050015
:1048000002229046009B83F0080353EA0A030AD170
:104810005CEA010201D1620705D530228DF804203F
:104820004FF001087F1E582804D034A003900EA832
:1048300002900DE036A0F9E753466046009AFBF778
:10484000C5FC84460398825C0298401E0290027068
:104850005CEA0100F0D1029806A9081A00F1200ACA
:10486000600702D524F4803400E00127574502DDBB
:10487000A7EB0A0000E0002000EB0A010090059879
:104880004144401A0590E00306D45B462146179A3E
:10489000059800F0B3F90544002706E001A85A4640
:1048A000C05D179990476D1C7F1C4745F6DBE00300
:1048B0000CD55B462146179A059800F09FF90544F0
:1048C00004E030205A46179990476D1C0099481E05
:1048D00000900029F5DC08E0029802995A46007819
:1048E000491C0291179990476D1CBAF10001AAF179
:1048F000010AF1DC65E100000928010030313233A2
:10490000343536373839616263646566000000000B
:1049100030313233343536373839414243444546F5
:104920000000000000F058F90544761C307800289B
:104930007FF4ECAD19B02846BDE8F08F620700D4D3
:10494000062709F1070222F0070CFCE80223E146E2
:1049500003F000485FEA080C02D00FF2702C0DE063
:104960005FEA045C02D50FF2682C07E05FEAC47CC2
:1049700002D00FF2602C01E0AFF2700C4FF0FF3864
:1049800023F00043CDF850C065280CD006DC452844
:1049900009D046281DD047283DD13DE0662818D0D3
:1049A00067287ED138E00021112F01DB112000E0C3
:1049B000781CCDE9000106A90EA8FFF7DDFCDDE9B2
:1049C0000F010E9A03910021009207F1010A049150
:1049D0004DE04FF000400097CDE9011006A90EA868
:1049E000FFF7CAFCDDE90F0203920E9B119900222A
:1049F000DDF80CA00093049211B9791C00EB010AB8
:104A0000B7EB0A0004D4C0F1FF3007F1010A0490AB
:104A1000AAEB0700019044E0012F00DA01270021F2
:104A2000112F01DD112000E03846CDE9000106A973
:104A30000EA8FFF7A1FCDDE90F010E9A03910021FA
:104A400004910092BA4621070CD40399514500DA2B
:104A50008A46BAF1010F05DD009AAAF10101515C05
:104A6000302908D0B84202DA10F1040F06DA012129
:104A7000CDE9011015E0AAF10101E9E7002805DC04
:104A8000049901440491AAEB000102E0411C514544
:104A900000DD8A460499401A401C01904FF0004006
:104AA0000290200704D40198504501DBCDF8048022
:104AB00000208DF84F0002980DF14F07B0F1004F24
:104AC00025D02B200E9002984FF0020800280CDA17
:104AD000404202902D200E9007E00A210298FBF739
:104AE00085FC3031029007F8011DB8F10001A8F1F2
:104AF0000108F2DC02980028EFD1791E0E980870A8
:104B0000307800F0200040F0450007F8020D12A8B0
:104B1000C01B00F107081498007800B1012000EBD9
:104B20000A01019801EBE07105984144401A401ECA
:104B30000590E00306D45B462146179A059800F0DD
:104B40005DF805441498007818B15A4617999047B3
:104B50006D1CE00324D55B462146179A059800F0AA
:104B60004DF805441CE00498002807DBDDE903014B
:104B7000884203DD0098405C179901E017993020C6
:104B80005A469047049805F10105401C049001988D
:104B9000401E019004D12E205A46179990476D1C53
:104BA000BAF10001AAF1010ADDDC05E017F8010BFA
:104BB0005A46179990476D1CB8F10001A8F10108F9
:104BC000F4DC5B462146179A0598ABE62D00000001
:104BD0002B000000200000002DE9F04104460025D4
:104BE0001E461746880404D405E039462020B04705
:104BF0006D1C641EF9D52846BDE8F0812DE9F04111
:104C0000044600251E469046C80301D5302700E023
:104C10002027880404D505E041463846B0476D1C7E
:104C2000641EF9D52846BDE8F0810A68531C0B6064
:104C3000107070472DED0C8B8CB0FCF71BFEFFF74E
:104C40004AF8FEF7B5FEFEF713FFFEF73DFF6423BB
:104C50000A22D021FB48FCF7D3FAFB4908706423F1
:104C60001222FAA1FE48FEF707F9F648FEF78EFE7B
:104C700003208DF82A0000208DF8280001208DF8EF
:104C80002B0003208DF8290000208DF82C000AA8A5
:104C9000FEF712FD9FEDF34ADFEDF23A9FEDF13A98
:104CA000DFEDF02A9FEDEF2ADFEDEE1A9FEDED1A12
:104CB000DFEDEC0A9FEDEB0A002000F079FA9FEDA2
:104CC000E90AE94880ED000A9FEDE60AE74880ED31
:104CD000000A9FEDE40AE64880ED000A9FEDE10A34
:104CE000E44880ED000A9FEDDF0AE34880ED000A0A
:104CF0009FEDDC0AE14880ED000A9FEDDA0AE0480A
:104D000080ED000A9FEDD70ADE4880ED000A9FED96
:104D1000D50ADD4880ED000A9FEDD20ADB4880ED20
:104D2000000A9FEDD00ADA4880ED000A9FEDCD0A17
:104D3000D84880ED000A9FEDCB0AD74880ED000AE5
:104D40009FEDC80AD54880ED000A9FEDC60AD448F9
:104D500080ED000A9FEDC30AD24880ED000A9FED66
:104D6000C10AD14880ED000A9FEDBE0ACF4880ED10
:104D7000000A0020CE490870FEF7AAFAF2E10220EC
:104D8000FCF758F8FEF7C4FEFBF758FDFCF766F990
:104D9000C84908600968C84A1268881AFBF7EAFA25
:104DA00041EC190B9FEDC50B53EC102BFBF773FA7D
:104DB00041EC180BFBF7FEFAC2490860C24890EDBF
:104DC000000AAC48D0ED000A30EE200A0846D0EDCB
:104DD000000A60EE200AB0EE001A80EE810AA248B6
:104DE000D0ED000A30EE200A80ED000AB74890EDC1
:104DF000000AA148D0ED000A30EE200A0846D0EDA6
:104E0000000A20EE200AF0EE000A80EE201A9748F1
:104E100090ED000A31EE000A80ED000AAC4890EDFA
:104E2000000A9648D0ED000A30EE200A0846D0ED80
:104E3000000A20EE200AF0EE000A80EE201A8C48CC
:104E400090ED000A31EE000A80ED000AA14890EDD5
:104E5000000AA148A149097800EB810080ED000A11
:104E60009E480078401C142190FBF1F201FB1200D7
:104E70009A490870002016E09749984A127801EB89
:104E80008201D1ED000A8A49097800EE101AB8EEC5
:104E9000400A30EE800ABCEEC00A10EE101A844AB6
:104EA0001170411C88B21428E6DB81480078142177
:104EB00090FBF1F07E490870864890ED000A764834
:104EC000D0ED000A30EE200A7E48D0ED000A20EE38
:104ED000200AF0EE000A80EE201A694890ED000AE0
:104EE00031EE000A80ED000A90ED000AB5EEC00A2E
:104EF000F1EE10FA16D090ED000A6A48D0ED000AE3
:104F000030EE200A6F48D0ED000A20EE200AF0EEC5
:104F1000000A80EE201A5D4890ED000A31EE000A8A
:104F200080ED000A6E4890ED000A5C48D0ED000A62
:104F300030EE200A6348D0ED000A20EE200AF0EEA1
:104F4000000A80EE201A4F4890ED000A31EE000A68
:104F500080ED000A90ED000AB5EEC00AF1EE10FAFD
:104F600016D090ED000A5048D0ED000A30EE200A2D
:104F70005448D0ED000A20EE200AF0EE000A80EE40
:104F8000201A434890ED000A31EE000A80ED000A35
:104F9000544890ED000A4248D0ED000A30EE200A55
:104FA0004848D0ED000A20EE200AF0EE000A80EE1C
:104FB000201A354890ED000A31EE000A80ED000A13
:104FC00090ED000AB5EEC00AF1EE10FA16D090EDA1
:104FD000000A3648D0ED000A30EE200A3948D0EDFC
:104FE000000A20EE200AF0EE000A80EE201A29487E
:104FF00090ED000A31EE000A80ED000A344890ED91
:10500000004A3248D0ED003A2F4890ED003A1E4851
:10501000D0ED002A1B4890ED002A1948D0ED001A67
:10502000304890ED001A2E48D0ED000A294890ED46
:10503000000A2048006800F0BBF80D480068FBF744
:10504000A6F951E058010020020000204D505536CD
:105050003035302069732072656164790D0A000073
:10506000A4010020000000002000002024000020F7
:10507000280000200C000020100000201400002058
:105080002C000020300000203400002044000020CC
:10509000480000204C000020380000203C00002088
:1050A0004000002050000020540000205800002044
:1050B0005D00002018000020080000200000000013
:1050C00000408F401C000020940000209800002029
:1050D0009C00002088000020F00000205C000020E0
:1050E0008C0000209000002041EC180B1E48006846
:1050F000FBF74DF941EC190B1C480068FBF747F929
:1051000041EC1A0B1A480068FBF741F941EC1B0B04
:1051100018480068FBF73BF941EC1C0B1648006887
:10512000FBF735F941EC1D0B8DED088B8DED069BE2
:105130008DED04AB8DED02BB8DED00CB53EC1D2B43
:105140000EA11848FFF7D8F81749088064230846CD
:10515000028814491548FDF78FFE20214FF090403A
:10516000FBF76EFF0BE6000024000020200000206B
:105170004C0000204800002044000020446174617D
:105180003A252E32663A252E32663A252E32663A76
:10519000252E32663A252E32663A252E32660D0AC3
:1051A00000000000B000002004000020A401002046
:1051B0000E4908600E4981ED000A0E49C1ED000A52
:1051C0000D4981ED001A0D49C1ED001A0C4981ED20
:1051D000002A0C49C1ED002A0B4981ED003A0B4928
:1051E000C1ED003A0A4981ED004A704708000020ED
:1051F000380000203C00002040000020500000202B
:1052000054000020580000200C0000201000002056
:105210001400002002030405060708090A0B0C0D00
:105220000E0F10100102030405060708090A0B0CF3
:105230000D0E0F100000000000000000010203042A
:105240000607080900000000010203046C52000870
:1052500000000020B0000000584300081C53000864
:10526000B000002088C7000068430008000000006C
:10527000000000000000000000000000000000002E
:10528000000000000000000000000000000000001E
:10529000000000000000000000000000000000000E
:1052A00000000000000000000000000000000000FE
:1052B00000000000000000000000000000000000EE
:1052C00000000000000000000000000000000000DE
:1052D00000000000000000000000000000000000CE
:1052E00000000000000000000000000000000000BE
:1052F00000000000000000000000000000000000AE
:10530000000000000000000000000000000000009D
:0C531000100000000100000000127A00F4
:040000050800019559
:00000001FF
